:020000040800F2
:1000000000000120F10300083D0400083D04000841
:100010003D0400083D0400083D0400080000000005
:100020000000000000000000000000003D04000887
:100030003D040008000000003D0400083D040008E5
:100040003D0400083D0400083D0400083D0400088C
:100050003D0400083D0400083D0400083D0400087C
:100060003D0400083D0400083D0400083D0400086C
:100070003D0400083D0400083D0400083D0400085C
:100080003D0400083D0400083D0400080000000095
:100090000000000000000000000000003D04000817
:1000A0003D0400083D0400083D0400083D0400082C
:1000B0003D0400083D0400083D0400083D0400081C
:1000C0003D0400083D0400083D0400083D0400080C
:1000D0003D0400083D0400083D0400080000000045
:1000E0003D0400083D0400083D0400080000000035
:1000F0000000000000000000000000003D040008B7
:10010000000000003D0400083D0400083D04000814
:1001100000000000000000000000000000000000DF
:100120003D0400083D0400083D0400083D040008AB
:100130003D04000800000000000000000000000076
:100140000000000000000000000000003D04000866
:100150003D0400083D0400083D0400083D0400087B
:100160003D0400083D0400080000000000000000FD
:10017000000000000000000000000000000000007F
:10018000000000003D040008000000000000000026
:040190003D04000822
:1001940010B5054C237833B9044B13B10448AFF3BD
:1001A40000800123237010BD2800002000000000FF
:1001B4004004000808B5034B1BB103490348AFF3DF
:1001C400008008BD000000002C000020400400084E
:1001D40080B400AF0E4B1B681A680D4B1B6822F0ED
:1001E40010021A600A4B1B681A68094B1B6842F01C
:1001F40010021A60074B1B681A68064B1B6842F012
:1002040001021A6000BFBD465DF8047B704700BF61
:10021400040000200000002080B400AF1A4B1B68CB
:100224001A68194B1B6822F440221A60164B1B688B
:100234001A68154B1B6842F400221A60134B1B68A2
:100244001A68124B1B6822F400221A600F4B1B68B9
:100254001A680E4B1B6842F400221A600C4B1B6890
:100264001A680B4B1B6822F010021A60084B1B68BB
:100274001A68074B1B6842F070021A6000BFBD4643
:100284005DF8047B704700BF080000200C000020CC
:100294001000002080B400AF264B1B681A68254B61
:1002A4001B6822F480521A60224B1B681A68214B87
:1002B4001B6842F400521A601F4B1B681A681E4BDD
:1002C4001B6822F480521A601B4B1B681A681A4B75
:1002D4001B6842F400521A60184B1B681A68174BCB
:1002E4001B6842F004021A60144B1B681A68134B13
:1002F4001B6842F4CE621A600E4B1B681A680D4BE1
:100304001B6842F008021A6000BF0D4B1B681B6893
:1003140003F08003002BF8D0094B1B681A68084BC4
:100324001B6822F080021A6000BFBD465DF8047BA2
:10033400704700BF14000020180000201C0000209B
:100344002000002080B400AF0D4B1B6841221A60CE
:1003540000BF0C4B1B681B680A4A126803F0400379
:100364001360002BF5D0074B1B681A68054B1B68FC
:1003740042F040021A6000BFBD465DF8047B70473E
:10038400240000202000002080B500AFFFF720FFEC
:10039400FFF742FFFFF77EFFFFF7D4FF0023184665
:1003A40080BD00BF70B50D4D0D4C641BA41000261C
:1003B400A64209D10B4D0C4C00F040F8641BA4106C
:1003C4000026A64205D170BD55F8043B9847013676
:1003D400EEE755F8043B98470136F2E75804000865
:1003E40058040008580400085C040008DFF830D002
:1003F4000C480D490D4A002302E0D458C45004337C
:10040400C4188C42F9D30A4A0A4C002301E0136051
:100414000432A242FBD3FFF7C5FFFFF7B5FF7047D5
:1004240000000120000000202800002060040008D3
:100434002800002044000020FEE70000F8B500BFBB
:10044400F8BC08BC9E467047F8B500BFF8BC08BCB1
:040454009E46704709
:04045800B9010008DE
:04045C0095010008FE
:100460003038024044380240000002400800024098
:10047000240002400C1001401010014008100140FF
:080480000010014004100140CE
:04000005080003F1FB
:00000001FF
