:020000040800F2
:100000000000012081040008CD040008CD04000890
:10001000CD040008CD040008CD0400080000000055
:10002000000000000000000000000000CD040008F7
:10003000CD04000800000000CD040008CD04000835
:10004000CD040008CD040008CD040008CD0400084C
:10005000CD040008CD040008CD040008CD0400083C
:10006000CD040008CD040008CD040008CD0400082C
:10007000CD040008CD040008CD040008CD0400081C
:10008000CD040008CD040008CD04000800000000E5
:10009000000000000000000000000000CD04000887
:1000A000CD040008CD040008CD040008CD040008EC
:1000B000CD040008CD040008CD040008CD040008DC
:1000C000CD040008CD040008CD040008CD040008CC
:1000D000CD040008CD040008CD0400080000000095
:1000E000CD040008CD040008CD0400080000000085
:1000F000000000000000000000000000CD04000827
:1001000000000000CD040008CD040008CD04000864
:1001100000000000000000000000000000000000DF
:10012000CD040008CD040008CD040008CD0400086B
:10013000CD040008000000000000000000000000E6
:10014000000000000000000000000000CD040008D6
:10015000CD040008CD040008CD040008CD0400083B
:10016000CD040008CD0400080000000000000000DD
:10017000000000000000000000000000000000007F
:1001800000000000CD040008000000000000000096
:04019000CD04000892
:1001940010B5054C237833B9044B13B10448AFF3BD
:1001A40000800123237010BD5800002000000000CF
:1001B400D004000808B5034B1BB103490348AFF34F
:1001C400008008BD000000005C000020D00400088E
:1001D40080B400AF00BF0E4B1B681B6803F0020322
:1001E400002BF8D00B4B1B681A680A4B1B6842F4AF
:1001F40000321A60084B1B681A68074B1B6842F0F0
:1002040002021A6000BFBD465DF8047B704700BF60
:1002140000000020080000200400002080B400AF8B
:10022400164B1B681A68154B1B6822F440321A607F
:10023400124B1B681A68114B1B6842F400321A6097
:100244000F4B1B681A680E4B1B6842F440321A604D
:100254000C4B1B681A680B4B1B6842F400321A6083
:10026400094B1B681A68084B1B6842F003021A60AA
:1002740000BFBD465DF8047B704700BF0C00002042
:1002840010000020140000201800002080B400AFEB
:100294003B4B1B681A683A4B1B6822F001021A6038
:1002A400384B1B681A68374B1B6822F00F021A6020
:1002B400344B1B681A68334B1B6822F003021A6024
:1002C400304B1B681A682F4B1B6842F060021A609F
:1002D4002C4B1B681A682B4B1B6842F004021A60F3
:1002E400294B1B6801221A60284B1B681A68274B8C
:1002F4001B6842F080021A60254B1B684FF4A07201
:100304001A60244B1B6840F2E7321A60224B1B68C8
:1003140000221A601A4B1B681A68194B1B6822F0DA
:1003240003021A60164B1B681A68154B1B6822F0EF
:100334000F021A60124B1B681A68114B1B6842F0BB
:1003440001021A600F4B1B681A680E4B1B6842F0BF
:1003540008021A60114B1B681A68104B1B6842F0A4
:1003640003021A60094B1B681A68084B1B6842F0A9
:1003740001021A6000BFBD465DF8047B704700BFF0
:100384002C000020280000203C0000201C0000203D
:100394003800002034000020300000202400002019
:1003A40080B582B000AFFFF713FFFFF737FFFFF709
:1003B4006DFF4FF4A0737B6016E000BF1B4B1B68FE
:1003C4001B6803F00103002BF8D0184B1B681A6854
:1003D400164B1B6822F003021A60154B1B687A68DF
:1003E4001A607B68013B7B607B68002BE5DC0023A3
:1003F4003B6016E000BF0D4B1B681B6803F0010354
:10040400002BF8D0094B1B681A68084B1B6822F0B4
:1004140003021A60064B1B683A681A603B68013392
:100424003B603B68B3F5A07FE4DBC2E7200000201B
:100434003C00002070B50D4D0D4C641BA41000262B
:10044400A64209D10B4D0C4C00F040F8641BA410DB
:100454000026A64205D170BD55F8043B98470136E5
:10046400EEE755F8043B98470136F2E7E804000844
:10047400E8040008E8040008EC040008DFF830D0C1
:100484000C480D490D4A002302E0D458C4500433EB
:10049400C4188C42F9D30A4A0A4C002301E01360C1
:1004A4000432A242FBD3FFF7C5FFFFF779FF704781
:1004B400000001200000002058000020F004000883
:1004C4005800002074000020FEE70000F8B500BFCB
:1004D400F8BC08BC9E467047F8B500BFF8BC08BC21
:0404E4009E46704779
:0404E800B90100084E
:0404EC00950100086E
:1004F00000380240303802404438024000040240D4
:10050000080402400C04024024040240004401405C
:10051000104401401444014018440140204401406B
:1005200024440140284401402C440140344401400B
:10053000004801401048014024480140284801403B
:080540002C4801401448014061
:04000005080004816A
:00000001FF
