:020000040800F2
:1000000000000120A9030008F5030008F50300081B
:10001000F5030008F5030008F503000800000000E0
:10002000000000000000000000000000F5030008D0
:10003000F503000800000000F5030008F5030008C0
:10004000F5030008F5030008F5030008F5030008B0
:10005000F5030008F5030008F5030008F5030008A0
:10006000F5030008F5030008F5030008F503000890
:10007000F5030008F5030008F5030008F503000880
:10008000F5030008F5030008F50300080000000070
:10009000000000000000000000000000F503000860
:1000A000F5030008F5030008F5030008F503000850
:1000B000F5030008F5030008F5030008F503000840
:1000C000F5030008F5030008F5030008F503000830
:1000D000F5030008F5030008F50300080000000020
:1000E000F5030008F5030008F50300080000000010
:1000F000000000000000000000000000F503000800
:1001000000000000F5030008F5030008F5030008EF
:1001100000000000000000000000000000000000DF
:10012000F5030008F5030008F5030008F5030008CF
:10013000F5030008000000000000000000000000BF
:10014000000000000000000000000000F5030008AF
:10015000F5030008F5030008F5030008F50300089F
:10016000F5030008F503000800000000000000008F
:10017000000000000000000000000000000000007F
:1001800000000000F503000800000000000000006F
:04019000F50300086B
:100194000348044B834202D0034B03B11847704712
:1001A4002400002024000020000000000548064927
:1001B4000B1AD90F01EBA301491002D0034B03B171
:1001C400184770472400002024000020000000008D
:1001D40010B5064C237843B9FFF7DAFF044B13B18B
:1001E4000448AFF300800123237010BD24000020D5
:1001F40000000000F803000808B5044B1BB10449D3
:100204000448AFF30080BDE80840CFE700000000D9
:1002140028000020F803000870B50D4E0D4D761B24
:10022400B61006D0002455F8043B01349847A64282
:10023400F9D1094E094D761B00F0DCF8B61006D052
:10024400002455F8043B01349847A642F9D170BD07
:100254001004000810040008140400081004000826
:1002640080B500AF00F007F800F03CF800F04CF85F
:1002740000F078F8FCE780B400AF184B1B681A68EC
:10028400164B1B6822F480321A60144B1B681A68E0
:10029400124B1B6842F480321A6000BF0F4B1B687C
:1002A4001B6803F40033002BF8D10D4B1B681A684C
:1002B4000B4B1B6822F003021A60094B1B681A6877
:1002C400074B1B6842F001021A6000BF044B1B6815
:1002D4001B6800BFBD465DF8047B7047000000202A
:1002E4000400002080B400AF064B1B681A68054B5D
:1002F4001B6842F001021A6000BFBD465DF8047B32
:10030400704700BF0800002080B400AF064B1B6894
:100314001968054B1A68054B0B43136000BFBD46B3
:100324005DF8047B704700BF0C00002055550100A8
:1003340080B485B000AF78600023FB6003E000BFA9
:10034400FB680133FB607B684FF47A6202FB03F3C2
:10035400FA689A42F3DB00BF00BF1437BD465DF86C
:10036400047B704780B582B000AF00237B600CE053
:100374000A4A7B6852F82320094B1B681A60C8207C
:10038400FFF7D6FF7B6801337B607B68032BEFDDCF
:1003940000BF00BF0837BD4680BD00BF1400002069
:1003A40010000020DFF830D00C480D490D4A00231E
:1003B40002E0D458C4500433C4188C42F9D30A4A16
:1003C4000A4C002301E013600432A242FBD3FFF77E
:1003D40023FFFFF745FF70470000012000000020C5
:1003E40024000020180400082400002040000020FD
:1003F400FEE70000F8B500BFF8BC08BC9E46704795
:0C040400F8B500BFF8BC08BC9E4670476D
:04041000FD010008E2
:04041400D501000806
:1004180000380240083802403038024000000240EC
:10042800140002405500000000000000AA0000006F
:0404380000000000C0
:04000005080003A943
:00000001FF
