:020000040800F2
:1000000000000120310500087D0500087D0500087D
:100010007D0500087D0500087D0500080000000042
:100020000000000000000000000000007D05000846
:100030007D050008000000007D0500087D05000822
:100040007D0500087D0500087D0500087D05000888
:100050007D0500087D0500087D0500087D05000878
:100060007D0500087D0500087D0500087D05000868
:100070007D0500087D0500087D0500087D05000858
:100080007D0500087D0500087D05000800000000D2
:100090000000000000000000000000007D050008D6
:1000A0007D0500087D0500087D0500087D05000828
:1000B0007D0500087D0500087D0500087D05000818
:1000C0007D0500087D0500087D0500087D05000808
:1000D0007D0500087D0500087D0500080000000082
:1000E0007D0500087D0500087D0500080000000072
:1000F0000000000000000000000000007D05000876
:10010000000000007D0500087D0500087D05000851
:1001100000000000000000000000000000000000DF
:100120007D0500087D0500087D0500087D050008A7
:100130007D05000800000000000000000000000035
:100140000000000000000000000000007D05000825
:100150007D0500087D0500087D0500087D05000877
:100160007D0500087D05000800000000000000007B
:10017000000000000000000000000000000000007F
:10018000000000007D0500080000000000000000E5
:040190007D050008E1
:100194000348044B834202D0034B03B11847704712
:1001A4000C0000200C000020000000000548064957
:1001B4000B1AD90F01EBA301491002D0034B03B171
:1001C400184770470C0000200C00002000000000BD
:1001D40010B5064C237843B9FFF7DAFF044B13B18B
:1001E4000448AFF300800123237010BD0C000020ED
:1001F400000000008005000808B5044B1BB1044949
:100204000448AFF30080BDE80840CFE700000000D9
:10021400100000208005000870B50D4E0D4D761BB2
:10022400B61006D0002455F8043B01349847A64282
:10023400F9D1094E094D761B00F0A0F9B61006D08D
:10024400002455F8043B01349847A642F9D170BD07
:1002540098050008980500089C0500089805000802
:1002640080B500AF00F009F800F03AF800F052F859
:1002740000F07AF800F0F2F8FCE780B400AF174B16
:100284001B681A68154B1B6822F001021A60134B95
:100294001B681A68114B1B6842F001021A6000BF08
:1002A4000E4B1B681B6803F00203002BF8D00B4BAA
:1002B4001B689A68094B1B6822F003029A6000BF0E
:1002C400064B1B689B6803F00C03002BF8D100BF9E
:1002D40000BFBD465DF8047B704700BF00000020EE
:1002E40080B400AF0A4B1B681A6B094B1B6842F0C1
:1002F40002021A63064B1B685A6C054B1B6842F4D6
:1003040000325A6400BFBD465DF8047B704700BFED
:100314000000002080B400AF124B1B681A68114B18
:100324001B6842F400321A600E4B1B689A680D4B2E
:100334001B6842F400329A600A4B1B68DA68094B66
:100344001B6842F40032DA60064B1B685A6A054B9C
:100354001B6842F003025A6200BFBD465DF8047B8D
:10036400704700BF0400002080B400AF3A4B1B6804
:100374001A6A394B1B6822F001021A62364B1B6859
:100384009A69354B1B6822F008029A61324B1B684C
:100394009A69314B1B6822F003029A612E4B1B6849
:1003A4009A692D4B1B6842F060029A612A4B1B68C4
:1003B4009A69294B1B6842F004029A61264B1B6818
:1003C40001225A63244B1B681A68234B1B6842F0B2
:1003D40080021A60204B1B6844F61F62DA621E4BCF
:1003E4001B680F229A621C4B1B6800225A621A4B2C
:1003F4001B681A6A184B1B6822F002021A62164B19
:100404001B681A6A144B1B6822F008021A62124B0A
:100414001B681A6A104B1B6842F001021A620E4BE9
:100424001B689A690C4B1B6842F008029A610A4BDC
:100434001B685A69084B1B6842F003025A61064B59
:100444001B681A68044B1B6842F001021A6000BF63
:10045400BD465DF8047B70470800002080B582B07B
:1004640000AF00237B6019E000BF224B1B681B69AF
:1004740003F00103002BF8D01E4B1B681A691D4BB7
:100484001B6822F003021A611A4B1B687A685A63CC
:10049400022000F031F87B680A337B607B6840F609
:1004A400B8329342E0DD40F6B8333B6019E000BF58
:1004B400104B1B681B6903F00103002BF8D00D4B94
:1004C4001B681A690B4B1B6822F003021A61094B63
:1004D4001B683A685A63022000F00EF83B680A3B36
:1004E4003B603B68002BE2DA00BF00BF0837BD4623
:1004F40080BD00BF0800002080B485B000AF7860E4
:100504000023FB6003E000BFFB680133FB607B68F2
:100514004FF47A7202FB03F3FA689A42F3DB00BFEA
:1005240000BF1437BD465DF8047B7047DFF830D058
:100534000C480D490D4A002302E0D458C45004333A
:10054400C4188C42F9D30A4A0A4C002301E0136010
:100554000432A242FBD3FFF75FFEFFF781FE704730
:1005640000000120000000200C000020A00500086D
:100574000C00002028000020FEE70000F8B500BFB2
:10058400F8BC08BC9E467047F8B500BFF8BC08BC70
:040594009E467047C8
:04059800FD01000859
:04059C00D50100087D
:0C05A0000038024000040240004401400A
:0400000508000531B9
:00000001FF
