:020000040800F2
:10000000000001208D030008D9030008D90300086F
:10001000D9030008D9030008D90300080000000034
:10002000000000000000000000000000D9030008EC
:10003000D903000800000000D9030008D903000814
:10004000D9030008D9030008D9030008D903000820
:10005000D9030008D9030008D9030008D903000810
:10006000D9030008D9030008D9030008D903000800
:10007000D9030008D9030008D9030008D9030008F0
:10008000D9030008D9030008D903000800000000C4
:10009000000000000000000000000000D90300087C
:1000A000D9030008D9030008D9030008D9030008C0
:1000B000D9030008D9030008D9030008D9030008B0
:1000C000D9030008D9030008D9030008D9030008A0
:1000D000D9030008D9030008D90300080000000074
:1000E000D9030008D9030008D90300080000000064
:1000F000000000000000000000000000D90300081C
:1001000000000000D9030008D9030008D903000843
:1001100000000000000000000000000000000000DF
:10012000D9030008D9030008D9030008D90300083F
:10013000D9030008000000000000000000000000DB
:10014000000000000000000000000000D9030008CB
:10015000D9030008D9030008D9030008D90300080F
:10016000D9030008D90300080000000000000000C7
:10017000000000000000000000000000000000007F
:1001800000000000D903000800000000000000008B
:04019000D903000887
:1001940010B5054C237833B9044B13B10448AFF3BD
:1001A40000800123237010BD1C000020000000000B
:1001B400DC03000808B5034B1BB103490348AFF344
:1001C400008008BD0000000020000020DC030008BF
:1001D40080B400AF1C4B1B681A681B4B1B6822F4CD
:1001E40080321A60184B1B681A68174B1B6842F45C
:1001F40080321A6000BF144B1B681B6803F4003381
:10020400002BF8D0114B1B681A68104B1B6822F0A6
:1002140003021A600D4B1B681A680C4B1B6842F0F2
:1002240001021A6000BF094B1B681B68084B1B685E
:100234001A68074B1B6842F001021A6000BFBD46F2
:100244005DF8047B704700BF00000020040000201C
:100254000800002080B400AF064B1B681A68054BE9
:100264001B6842F001021A6000BFBD465DF8047BC2
:10027400704700BF0C00002080B582B000AF154B62
:100284001B681A68134B1B6842F001021A600023B2
:100294007B6004E000F020F87B6801337B607B68BE
:1002A400092BF7DD0B4B1B681B680A4B1B680022EC
:1002B4001A6000233B6004E000F00EF83B68013351
:1002C4003B603B68092BF7DD00BF00BF0837BD4624
:1002D40080BD00BF1000002080B400AF104B1B682D
:1002E400104A1A60104B1B681A680F4B1B6842F0C7
:1002F40001021A600C4B1B681A680B4B1B6842F016
:1003040004021A6000BF084B1B681B6803F48033A7
:10031400002BF8D000BF00BFBD465DF8047B7047DA
:10032400180000209F2526001400002080B500AF8F
:10033400FFF74EFFFFF78EFFFFF79EFFFCE700BFBE
:1003440070B50D4D0D4C641BA4100026A64209D1B6
:100354000B4D0C4C00F040F8641BA4100026A64280
:1003640005D170BD55F8043B98470136EEE755F8C2
:10037400043B98470136F2E7F4030008F40300084D
:10038400F4030008F8030008DFF830D00C480D49E6
:100394000D4A002302E0D458C4500433C4188C42DC
:1003A400F9D30A4A0A4C002301E013600432A24242
:1003B400FBD3FFF7C5FFFFF7B9FF7047000001202B
:1003C400000000201C000020FC0300081C0000208A
:1003D40038000020FEE70000F8B500BFF8BC08BCF8
:1003E4009E467047F8B500BFF8BC08BC9E467047EF
:0403F400B901000843
:0403F8009501000863
:1003FC000038024008380240303802400000024009
:0C040C001400024010E000E014E000E0EA
:040000050800038D5F
:00000001FF
