:020000040800F2
:1000000000000120DD03000829040008290400087D
:100010002904000829040008290400080000000041
:10002000000000000000000000000000290400089B
:100030002904000800000000290400082904000821
:1000400029040008290400082904000829040008DC
:1000500029040008290400082904000829040008CC
:1000600029040008290400082904000829040008BC
:1000700029040008290400082904000829040008AC
:1000800029040008290400082904000800000000D1
:10009000000000000000000000000000290400082B
:1000A000290400082904000829040008290400087C
:1000B000290400082904000829040008290400086C
:1000C000290400082904000829040008290400085C
:1000D0002904000829040008290400080000000081
:1000E0002904000829040008290400080000000071
:1000F00000000000000000000000000029040008CB
:100100000000000029040008290400082904000850
:1001100000000000000000000000000000000000DF
:1001200029040008290400082904000829040008FB
:10013000290400080000000000000000000000008A
:10014000000000000000000000000000290400087A
:1001500029040008290400082904000829040008CB
:100160002904000829040008000000000000000025
:10017000000000000000000000000000000000007F
:10018000000000002904000800000000000000003A
:040190002904000836
:100194000348044B834202D0034B03B11847704712
:1001A4005C0000205C0000200000000005480649B7
:1001B4000B1AD90F01EBA301491002D0034B03B171
:1001C400184770475C0000205C000020000000001D
:1001D40010B5064C237843B9FFF7DAFF044B13B18B
:1001E4000448AFF300800123237010BD5C0000209D
:1001F400000000002C04000808B5044B1BB104499E
:100204000448AFF30080BDE80840CFE700000000D9
:10021400600000202C04000870B50D4E0D4D761BB7
:10022400B61006D0002455F8043B01349847A64282
:10023400F9D1094E094D761B00F0F6F8B61006D038
:10024400002455F8043B01349847A642F9D170BD07
:100254004404000844040008480400084404000856
:1002640080B500AF00F007F800F03CF800F04CF85F
:1002740000F078F8FCE780B400AF184B1B681A68EC
:10028400164B1B6822F480321A60144B1B681A68E0
:10029400124B1B6842F480321A6000BF0F4B1B687C
:1002A4001B6803F40033002BF8D10D4B1B681A684C
:1002B4000B4B1B6822F003021A60094B1B681A6877
:1002C400074B1B6842F001021A6000BF044B1B6815
:1002D4001B6800BFBD465DF8047B7047000000202A
:1002E4000400002080B400AF064B1B681A68054B5D
:1002F4001B6842F001021A6000BFBD465DF8047B32
:10030400704700BF0800002080B400AF064B1B6894
:100314001968054B1A68054B0B43136000BFBD46B3
:100324005DF8047B704700BF0C00002055550100A8
:1003340080B485B000AF78600023FB6003E000BFA9
:10034400FB680133FB607B684FF4C87202FB03F364
:10035400FA689A42F3DB00BF00BF1437BD465DF86C
:10036400047B704780B582B000AF00237B600DE052
:10037400164A7B6852F82320154B1B681A604FF409
:10038400FA70FFF7D5FF7B6801337B607B68082B2D
:10039400EEDD6420FFF7CCFF00233B600DE00D4A47
:1003A4003B6852F823200A4B1B681A604FF4FA701A
:1003B400FFF7BEFF3B6801333B603B68082BEEDD73
:1003C40000BF00BF0837BD4680BD00BF1400002039
:1003D4001000002038000020DFF830D00C480D4910
:1003E4000D4A002302E0D458C4500433C4188C428C
:1003F400F9D30A4A0A4C002301E013600432A242F2
:10040400FBD3FFF709FFFFF72BFF70470000012024
:10041400000000205C0000204C0400085C00002068
:1004240078000020FEE70000F8B500BFF8BC08BC67
:100434009E467047F8B500BFF8BC08BC9E4670479E
:04044400FD010008AE
:04044800D5010008D2
:10044C0000380240083802403038024000000240B8
:10045C00140002408000000040000000200000005A
:10046C001000000001000000020000000400000069
:10047C000800000000000000100000002000000038
:10048C004000000080000000080000000400000094
:0C049C0002000000010000000000000051
:04000005080003DD0F
:00000001FF
