:020000040800F2
:100000000000012055040008A1040008A104000814
:10001000A1040008A1040008A104000800000000D9
:10002000000000000000000000000000A104000823
:10003000A104000800000000A1040008A1040008B9
:10004000A1040008A1040008A1040008A1040008FC
:10005000A1040008A1040008A1040008A1040008EC
:10006000A1040008A1040008A1040008A1040008DC
:10007000A1040008A1040008A1040008A1040008CC
:10008000A1040008A1040008A10400080000000069
:10009000000000000000000000000000A1040008B3
:1000A000A1040008A1040008A1040008A10400089C
:1000B000A1040008A1040008A1040008A10400088C
:1000C000A1040008A1040008A1040008A10400087C
:1000D000A1040008A1040008A10400080000000019
:1000E000A1040008A1040008A10400080000000009
:1000F000000000000000000000000000A104000853
:1001000000000000A1040008A1040008A1040008E8
:1001100000000000000000000000000000000000DF
:10012000A1040008A1040008A1040008A10400081B
:10013000A104000800000000000000000000000012
:10014000000000000000000000000000A104000802
:10015000A1040008A1040008A1040008A1040008EB
:10016000A1040008A1040008000000000000000035
:10017000000000000000000000000000000000007F
:1001800000000000A10400080000000000000000C2
:04019000A1040008BE
:1001940010B5054C237833B9044B13B10448AFF3BD
:1001A40000800123237010BD1C000020000000000B
:1001B400A404000808B5034B1BB103490348AFF37B
:1001C400008008BD0000000020000020A4040008F6
:1001D40080B400AF204B1B681A681F4B1B6822F4C5
:1001E40080321A601C4B1B681A681B4B1B6842F454
:1001F40080321A6000BF184B1B681B6803F400337D
:10020400002BF8D0154B1B681A68144B1B6822F09E
:1002140003021A60114B1B681A68104B1B6842F0EA
:1002240001021A6000BF0D4B1B681B680C4B1B6856
:100234001A680B4B1B6842F001021A60084B1B68DA
:100244001A68074B1B6842F002021A6000BFBD46E1
:100254005DF8047B704700BF00000020040000200C
:100264000800002080B485B000AF0023FB6011E0DB
:10027400314B1B681A680121FB6801FA03F3194624
:100284002D4B1B680A431A60FB680133FB60FB6853
:100294000133FB60FB680F2BEADD00237B6011E078
:1002A400264B1B681A6801217B6801FA03F319467F
:1002B400224B1B680A431A607B6801337B607B68AE
:1002C40001337B607B68042BEADD0A23BB6011E009
:1002D4001A4B1B681A680121BB6801FA03F319461B
:1002E400164B1B680A431A60BB680133BB60BB68CA
:1002F4000133BB60BB680F2BEADD10233B6011E0C8
:100304000E4B1B681A6801213B6801FA03F3194676
:100314000A4B1B680A431A603B6801333B603B6825
:1003240001333B603B68132BEADD00BF00BF143789
:10033400BD465DF8047B70470C00002014000020CB
:1003440080B582B000AF00237B6025E000F03CF86C
:100354001B4B1B681A6801217B6801FA03F31946D9
:10036400174B1B680A431A6000233B600EE0154BD1
:100374001B681A6801217B6801FA03F31946114BC3
:100384001B680A431A603B6801333B603B68072BD8
:10039400EDDD7B6801337B607B68092BD6DD0023B0
:1003A4007B6009E0064B1B681B68054B1B68002239
:1003B4001A607B6801337B607B68072BF2DDC2E740
:1003C400100000201800002080B483B000AF002388
:1003D4007B6002E07B6801337B607B68044A934264
:1003E400F8DD00BF00BF0C37BD465DF8047B7047E5
:1003F4008FD0030080B500AFFFF7EAFEFFF732FFAE
:10040400FFF79EFFFCE700BF70B50D4D0D4C641B5C
:10041400A4100026A64209D10B4D0C4C00F040F864
:10042400641BA4100026A64205D170BD55F8043BF8
:1004340098470136EEE755F8043B98470136F2E752
:10044400BC040008BC040008BC040008C004000884
:10045400DFF830D00C480D490D4A002302E0D4588F
:10046400C4500433C4188C42F9D30A4A0A4C0023FA
:1004740001E013600432A242FBD3FFF7C5FFFFF78C
:10048400B9FF704700000120000000201C0000207C
:10049400C40400081C00002038000020FEE700000F
:1004A400F8B500BFF8BC08BC9E467047F8B500BF5D
:0804B400F8BC08BC9E4670472D
:0404BC00B90100087A
:0404C000950100089A
:1004C4000038024008380240303802400000024040
:0C04D40014000240000402401404024026
:040000050800045596
:00000001FF
