:020000040800F2
:1000000000000120B50500080106000801060008EF
:1000100001060008010600080106000800000000B3
:1000200000000000000000000000000001060008C1
:100030000106000800000000010600080106000893
:100040000106000801060008010600080106000874
:100050000106000801060008010600080106000864
:100060000106000801060008010600080106000854
:100070000106000801060008010600080106000844
:100080000106000801060008010600080000000043
:100090000000000000000000000000000106000851
:1000A0000106000801060008010600080106000814
:1000B0000106000801060008010600080106000804
:1000C00001060008010600080106000801060008F4
:1000D00001060008010600080106000800000000F3
:1000E00001060008010600080106000800000000E3
:1000F00000000000000000000000000001060008F1
:1001000000000000010600080106000801060008C2
:1001100000000000000000000000000000000000DF
:100120000106000801060008010600080106000893
:1001300001060008000000000000000000000000B0
:1001400000000000000000000000000001060008A0
:100150000106000801060008010600080106000863
:100160000106000801060008000000000000000071
:10017000000000000000000000000000000000007F
:100180000000000001060008000000000000000060
:04019000010600085C
:1001940010B5054C237833B9044B13B10448AFF3BD
:1001A40000800123237010BD5800002000000000CF
:1001B4000406000808B5034B1BB103490348AFF319
:1001C400008008BD000000005C0000200406000858
:1001D40080B400AF00BF124B1B681B6803F002031E
:1001E400002BF8D00F4B1B681A680E4B1B6842F0AB
:1001F40002021A600C4B1B681A680B4B1B6842F412
:1002040000321A60084B1B681A68074B1B6842F4DB
:1002140080221A6000BFBD465DF8047B704700BFB2
:1002240000000020040000200800002080B400AF7B
:10023400174B1B681A68164B1B6822F440321A606D
:10024400134B1B681A68124B1B6842F400321A6085
:10025400104B1B681A680F4B1B6842F440321A603B
:100264000D4B1B681A680C4B1B6842F400321A6071
:100274000A4B1B681B68094B1B681A68074B1B68F1
:1002840042F003021A6000BFBD465DF8047B70476C
:100294000C00002010000020140000201800002092
:1002A40080B400AF4C4B1B681A684B4B1B6822F0A0
:1002B40001021A60494B1B681A68484B1B6822F0FC
:1002C40008021A60454B1B681A68444B1B6822F0ED
:1002D40003021A60414B1B681A68404B1B6842F0CA
:1002E40060021A603D4B1B681A683C4B1B6842F065
:1002F40004021A603A4B1B681B68394A12681B0CCB
:100304001B041360364B1B681A68354B1B6842F09C
:1003140001021A60334B1B681A68324B1B6842F0A7
:1003240080021A60304B1B681B682F4A12681B0C32
:100334001B0413602C4B1B681A682B4B1B6842F47C
:10034400A0721A60294B1B681B68284A12681B0C90
:100354001B041360254B1B681A68244B1B6842F46A
:100364007A721A60224B1B6800221A601A4B1B68AF
:100374001A68194B1B6822F003021A60164B1B689B
:100384001A68154B1B6822F008021A60124B1B688E
:100394001A68114B1B6842F001021A600F4B1B686C
:1003A4001A680E4B1B6842F008021A60114B1B6856
:1003B4001A68104B1B6842F003021A60094B1B6851
:1003C4001A68084B1B6842F001021A6000BFBD4660
:1003D4005DF8047B704700BF2C000020280000203B
:1003E4003C0000201C0000203800002034000020C5
:1003F400300000202400002080B483B000AF786077
:100404003960254B1B681A68234B1B6822F00102D4
:100414001A60214B1B681A681F4B1B6842F00202CA
:100424001A601D4B1B681A681B4B1B6822F00702DD
:100434001A60194B1B681A68174B1B6842F080023C
:100444001A60164B1B6800221A60154B1B687A68E9
:100454001A60144B1B683A681A600F4B1B681A68C1
:100464000D4B1B6842F001021A6000BF0E4B1B6863
:100474001B6803F00103002BF8D00B4B1B681A68B0
:10048400094B1B6822F001021A6000BF0C37BD46FD
:100494005DF8047B704700BF400000204800002046
:1004A4004C000020500000204400002080B582B0A1
:1004B40000AFFFF78DFEFFF7B9FEFFF7F1FE4FF433
:1004C400A0737B601FE000BF244B1B681B6803F014
:1004D4000103002BF8D0214B1B681A681F4B1B68C3
:1004E40022F001021A601E4B1B687A681A606421AC
:1004F4004FF4C860FFF780FF1A4B1B6864221A6030
:100504007B68013B7B607B68002BDCDA00233B606B
:100514001FE000BF114B1B681B6803F00103002B95
:10052400F8D00E4B1B681A680C4B1B6822F00102B2
:100534001A600B4B1B683A681A6064214FF4C86058
:10054400FFF75AFF074B1B6864221A603B680133AC
:100554003B603B68B3F5A07FDBDBB0E72000002005
:100564003C0000203400002070B50D4D0D4C641B80
:10057400A4100026A64209D10B4D0C4C00F040F803
:10058400641BA4100026A64205D170BD55F8043B97
:1005940098470136EEE755F8043B98470136F2E7F1
:1005A4001C0600081C0600081C060008200600089B
:1005B400DFF830D00C480D490D4A002302E0D4582E
:1005C400C4500433C4188C42F9D30A4A0A4C002399
:1005D40001E013600432A242FBD3FFF7C5FFFFF72B
:1005E40065FF704700000120000000205800002033
:1005F400240600085800002074000020FEE70000D4
:10060400F8B500BFF8BC08BC9E467047F8B500BFFB
:08061400F8BC08BC9E467047CB
:04061C00B901000818
:040620009501000838
:10062400003802403038024044380240000402409E
:10063400080402400C040240240402400044014027
:100644001044014014440140184401402044014036
:1006540024440140284401402C44014034440140D6
:100664000048014010480140244801402848014006
:080674002C480140144801402C
:04000005080005B535
:00000001FF
