:020000040800F2
:10000000000001206D040008B9040008B9040008CC
:10001000B9040008B9040008B90400080000000091
:10002000000000000000000000000000B90400080B
:10003000B904000800000000B9040008B904000871
:10004000B9040008B9040008B9040008B90400089C
:10005000B9040008B9040008B9040008B90400088C
:10006000B9040008B9040008B9040008B90400087C
:10007000B9040008B9040008B9040008B90400086C
:10008000B9040008B9040008B90400080000000021
:10009000000000000000000000000000B90400089B
:1000A000B9040008B9040008B9040008B90400083C
:1000B000B9040008B9040008B9040008B90400082C
:1000C000B9040008B9040008B9040008B90400081C
:1000D000B9040008B9040008B904000800000000D1
:1000E000B9040008B9040008B904000800000000C1
:1000F000000000000000000000000000B90400083B
:1001000000000000B9040008B9040008B9040008A0
:1001100000000000000000000000000000000000DF
:10012000B9040008B9040008B9040008B9040008BB
:10013000B9040008000000000000000000000000FA
:10014000000000000000000000000000B9040008EA
:10015000B9040008B9040008B9040008B90400088B
:10016000B9040008B9040008000000000000000005
:10017000000000000000000000000000000000007F
:1001800000000000B90400080000000000000000AA
:04019000B9040008A6
:100194000348044B834202D0034B03B11847704712
:1001A4006C0000206C000020000000000548064997
:1001B4000B1AD90F01EBA301491002D0034B03B171
:1001C400184770476C0000206C00002000000000FD
:1001D40010B5064C237843B9FFF7DAFF044B13B18B
:1001E4000448AFF300800123237010BD6C0000208D
:1001F40000000000BC04000808B5044B1BB104490E
:100204000448AFF30080BDE80840CFE700000000D9
:1002140070000020BC04000870B50D4E0D4D761B17
:10022400B61006D0002455F8043B01349847A64282
:10023400F9D1094E094D761B00F03EF9B61006D0EF
:10024400002455F8043B01349847A642F9D170BD07
:10025400D4040008D4040008D8040008D404000816
:1002640080B500AF00F007F800F03CF800F054F857
:1002740000F09CF8FCE780B400AF184B1B681A68C8
:10028400164B1B6822F480321A60144B1B681A68E0
:10029400124B1B6842F480321A6000BF0F4B1B687C
:1002A4001B6803F40033002BF8D10D4B1B681A684C
:1002B4000B4B1B6822F003021A60094B1B681A6877
:1002C400074B1B6842F001021A6000BF044B1B6815
:1002D4001B6800BFBD465DF8047B7047000000202A
:1002E4000400002080B400AF0A4B1B681A68094B55
:1002F4001B6842F001021A60064B1B681A68054B22
:100304001B6842F002021A6000BFBD465DF8047B20
:10031400704700BF0800002080B483B000AF002302
:100324007B6011E0114B1B681A6801217B6801FA9C
:1003340003F319460D4B1B680A431A607B680133AB
:100344007B607B6801337B607B680E2BEADD084BA6
:100354001B681968064B1A68064B0B43136000BFF1
:100364000C37BD465DF8047B704700BF0C000020CD
:10037400140000205555010080B485B000AF7860AA
:100384000023FB6003E000BFFB680133FB607B6874
:100394004FF47A7202FB03F3FA689A42F3DB00BF6C
:1003A40000BF1437BD465DF8047B704780B584B048
:1003B40000AF0023FB6048E00023BB603FE0002364
:1003C4007B6036E0254B1B681A68244B1B6822F0BF
:1003D40002021A60214B1B681A68204B1B6842F00A
:1003E40001021A601E4ABB6852F823201D4B1B6889
:1003F4001A600520FFF7C0FF184B1B681A68174BDB
:100404001B6822F001021A60144B1B681A68134B14
:100414001B6842F002021A60114AFB6852F823205A
:10042400104B1B681A600520FFF7A6FF7B68013399
:100434007B607B68632BC5DDBB680133BB60BB6835
:10044400092BBCDDFB680133FB60FB68092BB3DDC2
:1004540000BF00BF1037BD4680BD00BF180000209C
:100464004400002010000020DFF830D00C480D4973
:100474000D4A002302E0D458C4500433C4188C42FB
:10048400F9D30A4A0A4C002301E013600432A24261
:10049400FBD3FFF7C1FEFFF7E3FE70470000012026
:1004A400000000206C000020DC0400086C00002028
:1004B40088000020FEE70000F8B500BFF8BC08BCC7
:1004C4009E467047F8B500BFF8BC08BC9E4670470E
:0404D400FD0100081E
:0404D800D501000842
:1004DC000038024008380240303802400000024028
:1004EC00140002400004024014040240FC0000000E
:1004FC0060000000DA000000F2000000660000005E
:10050C00B6000000BE000000E0000000FE0000008D
:10051C00F60000003F000000060000005B00000039
:10052C004F000000660000006D0000007D00000020
:0C053C00070000007F0000006F000000BE
:040000050800046D7E
:00000001FF
