:020000040800F2
:10000000000001201D0300086903000869030008BF
:100010006903000869030008690300080000000084
:10002000000000000000000000000000690300085C
:100030006903000800000000690300086903000864
:1000400069030008690300086903000869030008E0
:1000500069030008690300086903000869030008D0
:1000600069030008690300086903000869030008C0
:1000700069030008690300086903000869030008B0
:100080006903000869030008690300080000000014
:1000900000000000000000000000000069030008EC
:1000A0006903000869030008690300086903000880
:1000B0006903000869030008690300086903000870
:1000C0006903000869030008690300086903000860
:1000D00069030008690300086903000800000000C4
:1000E00069030008690300086903000800000000B4
:1000F000000000000000000000000000690300088C
:100100000000000069030008690300086903000893
:1001100000000000000000000000000000000000DF
:1001200069030008690300086903000869030008FF
:10013000690300080000000000000000000000004B
:10014000000000000000000000000000690300083B
:1001500069030008690300086903000869030008CF
:1001600069030008690300080000000000000000A7
:10017000000000000000000000000000000000007F
:1001800000000000690300080000000000000000FB
:0401900069030008F7
:1001940010B5054C237833B9044B13B10448AFF3BD
:1001A40000800123237010BD140000200000000013
:1001B4006C03000808B5034B1BB103490348AFF3B4
:1001C400008008BD00000000180000206C03000837
:1001D40080B400AF244B1B681A68234B1B6822F0C1
:1001E40080721A60204B1B681A681F4B1B6842F010
:1001F40080721A6000BF1C4B1B681B6803F00073FD
:10020400002BF8D0194B1B681A68184B1B6842F076
:1002140001021A60154B1B681A68144B1B6842F0E4
:1002240004021A60114B1B681A68104B1B6842F4D5
:1002340000721A600D4B1A680C4B1B6812681A6026
:100244000A4B1A68094B1B6812681A60084B1B6832
:100254001A68074B1B6842F001021A6000BFBD46D2
:100264005DF8047B704700BF0000002004000020FC
:100274000800002080B400AF064B1B681A68054BC9
:100284001B6842F001021A6000BFBD465DF8047BA2
:10029400704700BF0C00002080B400AF064B1B6801
:1002A4001A68054B1B6842F001021A6000BFBD4684
:1002B4005DF8047B704700BF1000002080B500AFDC
:1002C400FFF786FFFFF7D6FFFFF7E6FFFCE700BF67
:1002D40070B50D4D0D4C641BA4100026A64209D127
:1002E4000B4D0C4C00F040F8641BA4100026A642F1
:1002F40005D170BD55F8043B98470136EEE755F833
:10030400043B98470136F2E784030008840300089D
:100314008403000888030008DFF830D00C480D4936
:100324000D4A002302E0D458C4500433C4188C424C
:10033400F9D30A4A0A4C002301E013600432A242B2
:10034400FBD3FFF7C5FFFFF7B9FF7047000001209B
:1003540000000020140000208C030008140000207A
:1003640030000020FEE70000F8B500BFF8BC08BC70
:100374009E467047F8B500BFF8BC08BC9E4670475F
:04038400B9010008B3
:0403880095010008D3
:10038C00003802400438024030380240000002407D
:04039C001400024007
:040000050800031DCF
:00000001FF
