:020000040800F2
:1000000000000120C50300081104000811040008C5
:100010001104000811040008110400080000000089
:1000200000000000000000000000000011040008B3
:100030001104000800000000110400081104000869
:10004000110400081104000811040008110400083C
:10005000110400081104000811040008110400082C
:10006000110400081104000811040008110400081C
:10007000110400081104000811040008110400080C
:100080001104000811040008110400080000000019
:100090000000000000000000000000001104000843
:1000A00011040008110400081104000811040008DC
:1000B00011040008110400081104000811040008CC
:1000C00011040008110400081104000811040008BC
:1000D00011040008110400081104000800000000C9
:1000E00011040008110400081104000800000000B9
:1000F00000000000000000000000000011040008E3
:100100000000000011040008110400081104000898
:1001100000000000000000000000000000000000DF
:10012000110400081104000811040008110400085B
:1001300011040008000000000000000000000000A2
:100140000000000000000000000000001104000892
:10015000110400081104000811040008110400082B
:100160001104000811040008000000000000000055
:10017000000000000000000000000000000000007F
:100180000000000011040008000000000000000052
:04019000110400084E
:1001940010B5054C237833B9044B13B10448AFF3BD
:1001A40000800123237010BD1C000020000000000B
:1001B4001404000808B5034B1BB103490348AFF30B
:1001C400008008BD00000000200000201404000886
:1001D40080B400AF1C4B1B681B681B4A12685B0C85
:1001E4005B041360184B1B681A68174B1B6842F4B6
:1001F40080321A6000BF144B1B681B6803F4003381
:10020400002BF8D1114B1B681A68104B1B6822F0A5
:1002140003021A600D4B1B681A680C4B1B6842F0F2
:1002240001021A6000BF094B1B681B68084B1B685E
:100234001A68074B1B6842F001021A6000BFBD46F2
:100244005DF8047B704700BF00000020040000201C
:100254000800002080B483B000AF00237B6011E06D
:100264000D4B1B681A6801217B6801FA03F31946D8
:10027400094B1B680A431A607B6801337B607B6807
:1002840001337B607B68072BEADD00BF00BF0C37BE
:10029400BD465DF8047B70470C00002080B584B037
:1002A40000AF184A3B4692E8030083E803000023AA
:1002B400BB6022E00023FB6019E0134B1B681A6843
:1002C4003946FB680B441B7819460F4B1B680A43DD
:1002D4001A6000F01BF80C4B1B681B680A4B1B6868
:1002E40000221A6000F012F8FB680133FB60FB681F
:1002F400072BE2DDBB680133BB60BB682F2BD9DD64
:10030400D5E700BF2C0400081000002080B400AF23
:10031400104B1B68104A1A60104B1B681A680F4B6D
:100324001B6842F001021A600C4B1B681A680B4BE5
:100334001B6842F004021A6000BF084B1B681B686C
:1003440003F48033002BF8D000BF00BFBD465DF836
:10035400047B70471800002047E8010014000020C7
:1003640080B500AFFFF734FFFFF774FFFFF796FF88
:100374000023184680BD00BF70B50D4D0D4C641BA5
:10038400A4100026A64209D10B4D0C4C00F040F8F5
:10039400641BA4100026A64205D170BD55F8043B89
:1003A40098470136EEE755F8043B98470136F2E7E3
:1003B4003404000834040008340400083804000835
:1003C400DFF830D00C480D490D4A002302E0D45820
:1003D400C4500433C4188C42F9D30A4A0A4C00238B
:1003E40001E013600432A242FBD3FFF7C5FFFFF71D
:1003F400B7FF704700000120000000201C0000200F
:100404003C0400081C00002038000020FEE7000027
:10041400F8B500BFF8BC08BC9E467047F8B500BFED
:08042400F8BC08BC9E467047BD
:08042C0007030B090D0C0E067D
:04043400B901000802
:040438009501000822
:10043C0000380240083802403038024000000240C8
:0C044C001400024010E000E014E000E0AA
:04000005080003C527
:00000001FF
