:020000040800F2
:100000000000012081030008CD030008CD03000893
:10001000CD030008CD030008CD0300080000000058
:10002000000000000000000000000000CD030008F8
:10003000CD03000800000000CD030008CD03000838
:10004000CD030008CD030008CD030008CD03000850
:10005000CD030008CD030008CD030008CD03000840
:10006000CD030008CD030008CD030008CD03000830
:10007000CD030008CD030008CD030008CD03000820
:10008000CD030008CD030008CD03000800000000E8
:10009000000000000000000000000000CD03000888
:1000A000CD030008CD030008CD030008CD030008F0
:1000B000CD030008CD030008CD030008CD030008E0
:1000C000CD030008CD030008CD030008CD030008D0
:1000D000CD030008CD030008CD0300080000000098
:1000E000CD030008CD030008CD0300080000000088
:1000F000000000000000000000000000CD03000828
:1001000000000000CD030008CD030008CD03000867
:1001100000000000000000000000000000000000DF
:10012000CD030008CD030008CD030008CD0300086F
:10013000CD030008000000000000000000000000E7
:10014000000000000000000000000000CD030008D7
:10015000CD030008CD030008CD030008CD0300083F
:10016000CD030008CD0300080000000000000000DF
:10017000000000000000000000000000000000007F
:1001800000000000CD030008000000000000000097
:04019000CD03000893
:1001940010B5054C237833B9044B13B10448AFF3BD
:1001A40000800123237010BD240000200000000003
:1001B400D003000808B5034B1BB103490348AFF350
:1001C400008008BD0000000028000020D0030008C3
:1001D40080B400AF204B1B681A681F4B1B6822F4C5
:1001E40080321A601C4B1B681A681B4B1B6842F454
:1001F40080321A6000BF184B1B681B6803F400337D
:10020400002BF8D0154B1B681A68144B1B6822F09E
:1002140003021A60114B1B681A68104B1B6842F0EA
:1002240001021A6000BF0D4B1B681B680C4B1B6856
:100234001A680B4B1B6842F001021A60084B1B68DA
:100244001A68074B1B6842F002021A6000BFBD46E1
:100254005DF8047B704700BF00000020040000200C
:100264000800002080B400AF0E4B1B681A680D4BC9
:100274001B6842F001021A600B4B1B681A680A4B98
:100284001B6842F001021A60084B1B681A68074B8E
:100294001B6842F002021A6000BFBD465DF8047B91
:1002A400704700BF0C0000201C000020100000203C
:1002B40080B500AF0D4B1B681B6803F00103012BD5
:1002C4000AD10B4B1B681A68094B1B6842F00102E8
:1002D4001A6000F00FF806E0054B1B681B68044B1E
:1002E4001B6800221A6000BF80BD00BF18000020F8
:1002F4002000002080B483B000AF00237B6002E0C4
:100304007B6801337B607B68044A9342F8DB00BF5F
:1003140000BF0C37BD465DF8047B7047A02526005E
:1003240080B500AFFFF754FFFFF79CFFFFF7C0FF56
:10033400FCE700BF70B50D4D0D4C641BA4100026E6
:10034400A64209D10B4D0C4C00F040F8641BA410DC
:100354000026A64205D170BD55F8043B98470136E6
:10036400EEE755F8043B98470136F2E7E803000846
:10037400E8030008E8030008EC030008DFF830D0C5
:100384000C480D490D4A002302E0D458C4500433EC
:10039400C4188C42F9D30A4A0A4C002301E01360C2
:1003A4000432A242FBD3FFF7C5FFFFF7B9FF704742
:1003B400000001200000002024000020F0030008B9
:1003C4002400002040000020FEE70000F8B500BF34
:1003D400F8BC08BC9E467047F8B500BFF8BC08BC22
:0403E4009E4670477A
:0403E800B90100084F
:0403EC00950100086F
:1003F0000038024008380240303802400000024015
:100400000C000240140002401000024000040240B0
:04041000140402408E
:04000005080003816B
:00000001FF
