:020000040800F2
:1000000000000120D10300081D0400081D040008A1
:100010001D0400081D0400081D0400080000000065
:100020000000000000000000000000001D040008A7
:100030001D040008000000001D0400081D04000845
:100040001D0400081D0400081D0400081D0400080C
:100050001D0400081D0400081D0400081D040008FC
:100060001D0400081D0400081D0400081D040008EC
:100070001D0400081D0400081D0400081D040008DC
:100080001D0400081D0400081D04000800000000F5
:100090000000000000000000000000001D04000837
:1000A0001D0400081D0400081D0400081D040008AC
:1000B0001D0400081D0400081D0400081D0400089C
:1000C0001D0400081D0400081D0400081D0400088C
:1000D0001D0400081D0400081D04000800000000A5
:1000E0001D0400081D0400081D0400080000000095
:1000F0000000000000000000000000001D040008D7
:10010000000000001D0400081D0400081D04000874
:1001100000000000000000000000000000000000DF
:100120001D0400081D0400081D0400081D0400082B
:100130001D04000800000000000000000000000096
:100140000000000000000000000000001D04000886
:100150001D0400081D0400081D0400081D040008FB
:100160001D0400081D04000800000000000000003D
:10017000000000000000000000000000000000007F
:10018000000000001D040008000000000000000046
:040190001D04000842
:1001940010B5054C237833B9044B13B10448AFF3BD
:1001A40000800123237010BD2C00002000000000FB
:1001B4002004000808B5034B1BB103490348AFF3FF
:1001C400008008BD0000000030000020200400086A
:1001D40080B400AF204B1B681A681F4B1B6822F4C5
:1001E40080321A601C4B1B681A681B4B1B6842F454
:1001F40080321A6000BF184B1B681B6803F400337D
:10020400002BF8D0154B1B681A68144B1B6822F09E
:1002140003021A60114B1B681A68104B1B6842F0EA
:1002240001021A6000BF0D4B1B681B680C4B1B6856
:100234001A680B4B1B6842F400321A60094B1B68A6
:100244001A68084B1B6842F001021A6000BFBD46E1
:100254005DF8047B704700BF00000020040000200C
:100264000C0000200800002080B400AF254B1B6860
:100274001A68244B1B6822F001021A60214B1B6888
:100284001A68204B1B6842F002021A601D4B1B685F
:100294001A681C4B1B6822F007021A60194B1B6872
:1002A4001A68184B1B6842F080021A60164B1B68D0
:1002B40000221A60154B1B684FF47A721A60144BB3
:1002C4001B6843F2D4021A600E4B1B681A680D4B6C
:1002D4001B6842F001021A6000BF0E4B1B681B68CA
:1002E40003F00103002BF8D00A4B1B681A68094B72
:1002F4001B6822F001021A6000BFBD465DF8047B52
:10030400704700BF180000201C00002020000020BF
:10031400240000202800002080B400AF064B1B6896
:100324001A68054B1B6842F001021A6000BFBD4603
:100334005DF8047B704700BF1000002080B500AF5B
:100344000A4B1B681A68094B1B6842F001021A60C9
:10035400FFF78AFF054B1B681B68044B1B680022D0
:100364001A60FFF781FF00BF80BD00BF14000020AA
:1003740080B500AFFFF72CFFFFF7CEFFFFF7DEFFDE
:10038400FCE700BF70B50D4D0D4C641BA410002696
:10039400A64209D10B4D0C4C00F040F8641BA4108C
:1003A4000026A64205D170BD55F8043B9847013696
:1003B400EEE755F8043B98470136F2E738040008A5
:1003C40038040008380400083C040008DFF830D082
:1003D4000C480D490D4A002302E0D458C45004339C
:1003E400C4188C42F9D30A4A0A4C002301E0136072
:1003F4000432A242FBD3FFF7C5FFFFF7B9FF7047F2
:1004040000000120000000202C000020400400080F
:100414002C00002048000020FEE70000F8B500BFD3
:10042400F8BC08BC9E467047F8B500BFF8BC08BCD1
:040434009E46704729
:04043800B9010008FE
:04043C00950100081E
:100440000038024008380240303802404438024048
:1004500000000240140002400044014024440140D6
:0C046000284401402C440140104401409D
:04000005080003D11B
:00000001FF
