:020000040800F2
:100000000000012081040008CD040008CD04000890
:10001000CD040008CD040008CD0400080000000055
:10002000000000000000000000000000CD040008F7
:10003000CD04000800000000CD040008CD04000835
:10004000CD040008CD040008CD040008CD0400084C
:10005000CD040008CD040008CD040008CD0400083C
:10006000CD040008CD040008CD040008CD0400082C
:10007000CD040008CD040008CD040008CD0400081C
:10008000CD040008CD040008CD04000800000000E5
:10009000000000000000000000000000CD04000887
:1000A000CD040008CD040008CD040008CD040008EC
:1000B000CD040008CD040008CD040008CD040008DC
:1000C000CD040008CD040008CD040008CD040008CC
:1000D000CD040008CD040008CD0400080000000095
:1000E000CD040008CD040008CD0400080000000085
:1000F000000000000000000000000000CD04000827
:1001000000000000CD040008CD040008CD04000864
:1001100000000000000000000000000000000000DF
:10012000CD040008CD040008CD040008CD0400086B
:10013000CD040008000000000000000000000000E6
:10014000000000000000000000000000CD040008D6
:10015000CD040008CD040008CD040008CD0400083B
:10016000CD040008CD0400080000000000000000DD
:10017000000000000000000000000000000000007F
:1001800000000000CD040008000000000000000096
:04019000CD04000892
:1001940010B5054C237833B9044B13B10448AFF3BD
:1001A40000800123237010BD2800002000000000FF
:1001B400D004000808B5034B1BB103490348AFF34F
:1001C400008008BD000000002C000020D0040008BE
:1001D40080B400AF0E4B1B681A680D4B1B6822F0ED
:1001E40010021A600A4B1B681A68094B1B6842F01C
:1001F40010021A60074B1B681A68064B1B6842F012
:1002040001021A6000BFBD465DF8047B704700BF61
:10021400040000200000002080B400AF2A4B1B68BB
:100224001A68294B1B6822F440221A60264B1B686B
:100234001A68254B1B6842F400221A60224B1B6883
:100244001A68214B1B6822F440121A601E4B1B686B
:100254001A681D4B1B6842F400121A601B4B1B6882
:100264001A681A4B1B6822F440121A60174B1B6859
:100274001A68164B1B6842F400121A60144B1B6870
:100284001A68134B1B6822F070021A60104B1B682B
:100294001A680F4B1B6842F070021A600C4B1B6803
:1002A4001A680B4B1B6822F4E0621A60084B1B6847
:1002B4001A68074B1B6842F4E0621A6000BFBD462F
:1002C4005DF8047B704700BF080000200C0000208C
:1002D4001000002080B400AF244B1B681A68234B25
:1002E4001B6842F400521A60204B1B681B681F4AAB
:1002F400126823F4FF5323F01F0313601C4B1B6885
:100304001B681B4A126823F47F5323F03F031360D6
:10031400184B1B681A68174B1B6842F004021A60DA
:10032400144B1B681A68134B1B6842F4CE621A60A4
:100334000E4B1B681A680D4B1B6842F004021A60CE
:100344000D4B1B681A680C4B1B6822F03F021A60A5
:10035400064B1B681A68054B1B6842F008021A60BA
:1003640000BFBD465DF8047B704700BF1400002049
:10037400180000201C0000202000002080B483B05E
:1003840000AF00BF0E4B1B681B680D4A126803F0D8
:1003940020031360002BF5D00A4B1B681B68FB710C
:1003A400074B1B681A68064B1B6822F020021A6070
:1003B400FB7918460C37BD465DF8047B704700BFD7
:1003C400200000202400002080B483B000AF034646
:1003D400FB710D4B1B68FA791A6000BF0B4B1B684D
:1003E4001B6803F04003002BF8D0084B1B681A6805
:1003F400064B1B6822F040021A6000BF0C37BD4652
:100404005DF8047B704700BF24000020200000201A
:1004140080B582B000AFFFF7DBFEFFF7FDFEFFF70C
:1004240059FFFFF7ABFF0346FB71FB791846FFF753
:10043400CBFFF6E770B50D4D0D4C641BA4100026E0
:10044400A64209D10B4D0C4C00F040F8641BA410DB
:100454000026A64205D170BD55F8043B98470136E5
:10046400EEE755F8043B98470136F2E7E804000844
:10047400E8040008E8040008EC040008DFF830D0C1
:100484000C480D490D4A002302E0D458C4500433EB
:10049400C4188C42F9D30A4A0A4C002301E01360C1
:1004A4000432A242FBD3FFF7C5FFFFF7B1FF704749
:1004B400000001200000002028000020F0040008B3
:1004C4002800002044000020FEE70000F8B500BF2B
:1004D400F8BC08BC9E467047F8B500BFF8BC08BC21
:0404E4009E46704779
:0404E800B90100084E
:0404EC00950100086E
:1004F0003038024044380240000002400800024008
:10050000240002400C10014010100140081001406E
:0805100000100140041001403D
:04000005080004816A
:00000001FF
