:020000040800F2
:100000000000012081040008CD040008CD04000890
:10001000CD040008CD040008CD0400080000000055
:10002000000000000000000000000000CD040008F7
:10003000CD04000800000000CD040008CD04000835
:10004000CD040008CD040008CD040008CD0400084C
:10005000CD040008CD040008CD040008CD0400083C
:10006000CD040008CD040008CD040008CD0400082C
:10007000CD040008CD040008CD040008CD0400081C
:10008000CD040008CD040008CD04000800000000E5
:10009000000000000000000000000000CD04000887
:1000A000CD040008CD040008CD040008CD040008EC
:1000B000CD040008CD040008CD040008CD040008DC
:1000C000CD040008CD040008CD040008CD040008CC
:1000D000CD040008CD040008CD0400080000000095
:1000E000CD040008CD040008CD0400080000000085
:1000F000000000000000000000000000CD04000827
:1001000000000000CD040008CD040008CD04000864
:1001100000000000000000000000000000000000DF
:10012000CD040008CD040008CD040008CD0400086B
:10013000CD040008000000000000000000000000E6
:10014000000000000000000000000000CD040008D6
:10015000CD040008CD040008CD040008CD0400083B
:10016000CD040008CD0400080000000000000000DD
:10017000000000000000000000000000000000007F
:1001800000000000CD040008000000000000000096
:04019000CD04000892
:1001940010B5054C237833B9044B13B10448AFF3BD
:1001A40000800123237010BD140000200000000013
:1001B400D004000808B5034B1BB103490348AFF34F
:1001C400008008BD0000000018000020D0040008D2
:1001D40080B400AF1C4B1B681A681B4B1B6822F4CD
:1001E40080321A60184B1B681A68174B1B6842F45C
:1001F40080321A6000BF144B1B681B6803F4003381
:10020400002BF8D0114B1B681A68104B1B6822F0A6
:1002140003021A600D4B1B681A680C4B1B6842F0F2
:1002240001021A6000BF094B1B681B68084B1B685E
:100234001A68074B1B6842F001021A6000BFBD46F2
:100244005DF8047B704700BF00000020040000201C
:100254000800002080B483B000AF00237B6011E06D
:100264000D4B1B681A6801217B6801FA03F31946D8
:10027400094B1B680A431A607B6801337B607B6807
:1002840001337B607B68102BEADD00BF00BF0C37B5
:10029400BD465DF8047B70470C00002080B584B037
:1002A40000AF00237B6019E000F0A2F84F4B1B68FD
:1002B4001A6801217B6801FA03F319464B4B1B684A
:1002C4000A431A6000F094F8484B1B681B68474BBC
:1002D4001B6800221A607B6801337B607B68072BF4
:1002E400E2DD0723BB6019E000F082F83F4B1B6896
:1002F4001A680121BB6801FA03F319463B4B1B68DA
:100304000A431A6000F074F8384B1B681B68374BBB
:100314001B6800221A60BB68013BBB60BB68002BF2
:10032400E2DA0023FB601EE0FB6803F00103002B0C
:1003340016D100F05DF82D4B1B681A680121FB688B
:1003440001FA03F31946294B1B680A431A6000F0AB
:100354004FF8264B1B681B68244B1B6800221A604D
:10036400FB680133FB60FB68072BDDDD0023BB600A
:1003740023E0BB6803F00103002B1BD000F038F826
:100384001A4B1B681A680121BB6801FA03F319466A
:10039400164B1B680A431A6000F02AF8134B1B68BB
:1003A4001A680121BB6801FA03F319460F4B1B6855
:1003B4000A401A60BB680133BB60BB68072BD8DDF9
:1003C4000023FB600EE0094B1B681A680121FB68DF
:1003D40001FA03F31946054B1B680A431A60FB68CC
:1003E4000133FB60FB68072BEDDD5AE710000020AA
:1003F40080B483B000AF00237B6000237B6002E005
:100404007B6801337B607B68044A9342F8DD00BF5C
:1004140000BF0C37BD465DF8047B70478FD00300E6
:1004240080B500AFFFF7D4FEFFF714FFFFF736FFE8
:10043400FCE700BF70B50D4D0D4C641BA4100026E5
:10044400A64209D10B4D0C4C00F040F8641BA410DB
:100454000026A64205D170BD55F8043B98470136E5
:10046400EEE755F8043B98470136F2E7E804000844
:10047400E8040008E8040008EC040008DFF830D0C1
:100484000C480D490D4A002302E0D458C4500433EB
:10049400C4188C42F9D30A4A0A4C002301E01360C1
:1004A4000432A242FBD3FFF7C5FFFFF7B9FF704741
:1004B400000001200000002014000020F0040008C7
:1004C4001400002030000020FEE70000F8B500BF53
:1004D400F8BC08BC9E467047F8B500BFF8BC08BC21
:0404E4009E46704779
:0404E800B90100084E
:0404EC00950100086E
:1004F0000038024008380240303802400000024014
:0405000014000240A1
:04000005080004816A
:00000001FF
