:020000040800F2
:10000000000001204D04000899040008990400082C
:1000100099040008990400089904000800000000F1
:10002000000000000000000000000000990400082B
:1000300099040008000000009904000899040008D1
:10004000990400089904000899040008990400081C
:10005000990400089904000899040008990400080C
:1000600099040008990400089904000899040008FC
:1000700099040008990400089904000899040008EC
:100080009904000899040008990400080000000081
:1000900000000000000000000000000099040008BB
:1000A00099040008990400089904000899040008BC
:1000B00099040008990400089904000899040008AC
:1000C000990400089904000899040008990400089C
:1000D0009904000899040008990400080000000031
:1000E0009904000899040008990400080000000021
:1000F000000000000000000000000000990400085B
:100100000000000099040008990400089904000800
:1001100000000000000000000000000000000000DF
:10012000990400089904000899040008990400083B
:10013000990400080000000000000000000000001A
:10014000000000000000000000000000990400080A
:10015000990400089904000899040008990400080B
:100160009904000899040008000000000000000045
:10017000000000000000000000000000000000007F
:1001800000000000990400080000000000000000CA
:0401900099040008C6
:100194000348044B834202D0034B03B11847704712
:1001A4001400002014000020000000000548064947
:1001B4000B1AD90F01EBA301491002D0034B03B171
:1001C40018477047140000201400002000000000AD
:1001D40010B5064C237843B9FFF7DAFF044B13B18B
:1001E4000448AFF300800123237010BD14000020E5
:1001F400000000009C04000808B5044B1BB104492E
:100204000448AFF30080BDE80840CFE700000000D9
:10021400180000209C04000870B50D4E0D4D761B8F
:10022400B61006D0002455F8043B01349847A64282
:10023400F9D1094E094D761B00F02EF9B61006D0FF
:10024400002455F8043B01349847A642F9D170BD07
:10025400B4040008B4040008B8040008B404000896
:1002640080B500AF00F007F800F044F800F054F84F
:1002740000F090F8FCE780B400AF1C4B1B681B68CF
:100284001A4A12685B0C5B041360184B1B681A68EB
:10029400164B1B6842F480321A6000BF134B1B6874
:1002A4001B6803F40033002BF8D1114B1B681A6848
:1002B4000F4B1B6822F001021A600D4B1B681A6871
:1002C4000B4B1B6822F003021A60094B1B681A6867
:1002D400074B1B6842F001021A6000BF044B1B6805
:1002E4001B6800BFBD465DF8047B7047000000201A
:1002F4000400002080B400AF064B1B681A68054B4D
:100304001B6842F001021A6000BFBD465DF8047B21
:10031400704700BF0800002080B483B000AF002302
:100324007B6011E00D4B1B681A6801217B6801FAA0
:1003340003F31946094B1B680A431A607B680133AF
:100344007B607B6801337B607B680E2BEADD00BF3A
:1003540000BF0C37BD465DF8047B70470C000020DD
:1003640080B485B000AF78600023FB6003E000BF79
:10037400FB680133FB607B684FF47A6202FB03F392
:10038400FA689A42F3DB00BF00BF1437BD465DF83C
:10039400047B704780B582B000AF00237B6021E00E
:1003A400284B1B681A6801217B6801FA03F319467C
:1003B400244B1B680A431A60C820FFF7D1FF214B66
:1003C4001B681A6801217B6801FA03F3DB431946B1
:1003D4001C4B1B680A401A60C820FFF7C1FF7B68EA
:1003E40001337B607B68072BDADD07233B6021E068
:1003F400144B1B681A6801213B6801FA03F3194680
:10040400104B1B680A431A60C820FFF7A9FF0D4B65
:100414001B681A6801213B6801FA03F3DB431946A0
:10042400084B1B680A401A60C820FFF799FF3B6815
:10043400013B3B603B68002BDADA00BF00BF0837A2
:10044400BD4680BD10000020DFF830D00C480D49B7
:100454000D4A002302E0D458C4500433C4188C421B
:10046400F9D30A4A0A4C002301E013600432A24281
:10047400FBD3FFF7D1FEFFF7F3FE70470000012026
:100484000000002014000020BC0400081400002018
:1004940030000020FEE70000F8B500BFF8BC08BC3F
:1004A4009E467047F8B500BFF8BC08BC9E4670472E
:0404B400FD0100083E
:0404B800D501000862
:1004BC000038024008380240303802400000024048
:0404CC0014000240D6
:040000050800044D9E
:00000001FF
